{
  "contractName": "TaskContract",
  "abi": [
    {
      "inputs": [],
      "stateMutability": "nonpayable",
      "type": "constructor"
    },
    {
      "anonymous": false,
      "inputs": [
        {
          "indexed": false,
          "internalType": "uint256",
          "name": "id",
          "type": "uint256"
        },
        {
          "indexed": false,
          "internalType": "string",
          "name": "title",
          "type": "string"
        },
        {
          "indexed": false,
          "internalType": "string",
          "name": "description",
          "type": "string"
        },
        {
          "indexed": false,
          "internalType": "bool",
          "name": "done",
          "type": "bool"
        },
        {
          "indexed": false,
          "internalType": "uint256",
          "name": "createAt",
          "type": "uint256"
        }
      ],
      "name": "TaskCreated",
      "type": "event"
    },
    {
      "anonymous": false,
      "inputs": [
        {
          "indexed": false,
          "internalType": "uint256",
          "name": "id",
          "type": "uint256"
        },
        {
          "indexed": false,
          "internalType": "bool",
          "name": "done",
          "type": "bool"
        }
      ],
      "name": "TasktoggleDone",
      "type": "event"
    },
    {
      "inputs": [],
      "name": "taskCounter",
      "outputs": [
        {
          "internalType": "uint256",
          "name": "",
          "type": "uint256"
        }
      ],
      "stateMutability": "view",
      "type": "function",
      "constant": true
    },
    {
      "inputs": [
        {
          "internalType": "uint256",
          "name": "",
          "type": "uint256"
        }
      ],
      "name": "tasks",
      "outputs": [
        {
          "internalType": "uint256",
          "name": "id",
          "type": "uint256"
        },
        {
          "internalType": "string",
          "name": "title",
          "type": "string"
        },
        {
          "internalType": "string",
          "name": "description",
          "type": "string"
        },
        {
          "internalType": "bool",
          "name": "done",
          "type": "bool"
        },
        {
          "internalType": "uint256",
          "name": "createAt",
          "type": "uint256"
        }
      ],
      "stateMutability": "view",
      "type": "function",
      "constant": true
    },
    {
      "inputs": [
        {
          "internalType": "string",
          "name": "_title",
          "type": "string"
        },
        {
          "internalType": "string",
          "name": "_description",
          "type": "string"
        }
      ],
      "name": "createTask",
      "outputs": [],
      "stateMutability": "nonpayable",
      "type": "function"
    },
    {
      "inputs": [
        {
          "internalType": "uint256",
          "name": "_id",
          "type": "uint256"
        }
      ],
      "name": "toggleDone",
      "outputs": [],
      "stateMutability": "nonpayable",
      "type": "function"
    }
  ],
  "bytecode": "0x6080604052600080553480156200001557600080fd5b50620000926040518060400160405280600d81526020017f4d79206669727374207461736b000000000000000000000000000000000000008152506040518060400160405280600f81526020017f4578616d706c65206f66207461736b00000000000000000000000000000000008152506200009860201b60201c565b620006a5565b6040518060a001604052806000548152602001838152602001828152602001600015158152602001428152506001600080548152602001908152602001600020600082015181600001556020820151816001019081620000f991906200041a565b5060408201518160020190816200011191906200041a565b5060608201518160030160006101000a81548160ff021916908315150217905550608082015181600401559050507f6549102bed7d1bb5ec529ee14e2ca60ffc1f47f66d4cc6ca713220613cc64c2560005483836000426040516200017b959493929190620005be565b60405180910390a1600080815480929190620001979062000658565b91905055505050565b600081519050919050565b7f4e487b7100000000000000000000000000000000000000000000000000000000600052604160045260246000fd5b7f4e487b7100000000000000000000000000000000000000000000000000000000600052602260045260246000fd5b600060028204905060018216806200022257607f821691505b602082108103620002385762000237620001da565b5b50919050565b60008190508160005260206000209050919050565b60006020601f8301049050919050565b600082821b905092915050565b600060088302620002a27fffffffffffffffffffffffffffffffffffffffffffffffffffffffffffffffff8262000263565b620002ae868362000263565b95508019841693508086168417925050509392505050565b6000819050919050565b6000819050919050565b6000620002fb620002f5620002ef84620002c6565b620002d0565b620002c6565b9050919050565b6000819050919050565b6200031783620002da565b6200032f620003268262000302565b84845462000270565b825550505050565b600090565b6200034662000337565b620003538184846200030c565b505050565b5b818110156200037b576200036f6000826200033c565b60018101905062000359565b5050565b601f821115620003ca5762000394816200023e565b6200039f8462000253565b81016020851015620003af578190505b620003c7620003be8562000253565b83018262000358565b50505b505050565b600082821c905092915050565b6000620003ef60001984600802620003cf565b1980831691505092915050565b60006200040a8383620003dc565b9150826002028217905092915050565b6200042582620001a0565b67ffffffffffffffff811115620004415762000440620001ab565b5b6200044d825462000209565b6200045a8282856200037f565b600060209050601f8311600181146200049257600084156200047d578287015190505b620004898582620003fc565b865550620004f9565b601f198416620004a2866200023e565b60005b82811015620004cc57848901518255600182019150602085019450602081019050620004a5565b86831015620004ec5784890151620004e8601f891682620003dc565b8355505b6001600288020188555050505b505050505050565b6200050c81620002c6565b82525050565b600082825260208201905092915050565b60005b838110156200054357808201518184015260208101905062000526565b60008484015250505050565b6000601f19601f8301169050919050565b60006200056d82620001a0565b62000579818562000512565b93506200058b81856020860162000523565b62000596816200054f565b840191505092915050565b60008115159050919050565b620005b881620005a1565b82525050565b600060a082019050620005d5600083018862000501565b8181036020830152620005e9818762000560565b90508181036040830152620005ff818662000560565b9050620006106060830185620005ad565b6200061f608083018462000501565b9695505050505050565b7f4e487b7100000000000000000000000000000000000000000000000000000000600052601160045260246000fd5b60006200066582620002c6565b91507fffffffffffffffffffffffffffffffffffffffffffffffffffffffffffffffff82036200069a576200069962000629565b5b600182019050919050565b610c8480620006b56000396000f3fe608060405234801561001057600080fd5b506004361061004c5760003560e01c8063292a458514610051578063586717301461006d5780638d9776721461008b578063d81ef739146100bf575b600080fd5b61006b600480360381019061006691906106d0565b6100db565b005b6100756101db565b6040516100829190610761565b60405180910390f35b6100a560048036038101906100a091906107a8565b6101e1565b6040516100b695949392919061086f565b60405180910390f35b6100d960048036038101906100d491906107a8565b610334565b005b6040518060a00160405280600054815260200183815260200182815260200160001515815260200142815250600160008054815260200190815260200160002060008201518160000155602082015181600101908161013a9190610adc565b5060408201518160020190816101509190610adc565b5060608201518160030160006101000a81548160ff021916908315150217905550608082015181600401559050507f6549102bed7d1bb5ec529ee14e2ca60ffc1f47f66d4cc6ca713220613cc64c2560005483836000426040516101b895949392919061086f565b60405180910390a16000808154809291906101d290610bdd565b91905055505050565b60005481565b600160205280600052604060002060009150905080600001549080600101805461020a906108ff565b80601f0160208091040260200160405190810160405280929190818152602001828054610236906108ff565b80156102835780601f1061025857610100808354040283529160200191610283565b820191906000526020600020905b81548152906001019060200180831161026657829003601f168201915b505050505090806002018054610298906108ff565b80601f01602080910402602001604051908101604052809291908181526020018280546102c4906108ff565b80156103115780601f106102e657610100808354040283529160200191610311565b820191906000526020600020905b8154815290600101906020018083116102f457829003601f168201915b5050505050908060030160009054906101000a900460ff16908060040154905085565b6000600160008381526020019081526020016000206040518060a00160405290816000820154815260200160018201805461036e906108ff565b80601f016020809104026020016040519081016040528092919081815260200182805461039a906108ff565b80156103e75780601f106103bc576101008083540402835291602001916103e7565b820191906000526020600020905b8154815290600101906020018083116103ca57829003601f168201915b50505050508152602001600282018054610400906108ff565b80601f016020809104026020016040519081016040528092919081815260200182805461042c906108ff565b80156104795780601f1061044e57610100808354040283529160200191610479565b820191906000526020600020905b81548152906001019060200180831161045c57829003601f168201915b505050505081526020016003820160009054906101000a900460ff16151515158152602001600482015481525050905080606001511581606001901515908115158152505080600160008481526020019081526020016000206000820151816000015560208201518160010190816104f19190610adc565b5060408201518160020190816105079190610adc565b5060608201518160030160006101000a81548160ff021916908315150217905550608082015181600401559050507fe02dbc5b17f5ec8a5db603baf4e29a6e30ba19696b8f3a7a4b4c17140169d39582826060015160405161056a929190610c25565b60405180910390a15050565b6000604051905090565b600080fd5b600080fd5b600080fd5b600080fd5b6000601f19601f8301169050919050565b7f4e487b7100000000000000000000000000000000000000000000000000000000600052604160045260246000fd5b6105dd82610594565b810181811067ffffffffffffffff821117156105fc576105fb6105a5565b5b80604052505050565b600061060f610576565b905061061b82826105d4565b919050565b600067ffffffffffffffff82111561063b5761063a6105a5565b5b61064482610594565b9050602081019050919050565b82818337600083830152505050565b600061067361066e84610620565b610605565b90508281526020810184848401111561068f5761068e61058f565b5b61069a848285610651565b509392505050565b600082601f8301126106b7576106b661058a565b5b81356106c7848260208601610660565b91505092915050565b600080604083850312156106e7576106e6610580565b5b600083013567ffffffffffffffff81111561070557610704610585565b5b610711858286016106a2565b925050602083013567ffffffffffffffff81111561073257610731610585565b5b61073e858286016106a2565b9150509250929050565b6000819050919050565b61075b81610748565b82525050565b60006020820190506107766000830184610752565b92915050565b61078581610748565b811461079057600080fd5b50565b6000813590506107a28161077c565b92915050565b6000602082840312156107be576107bd610580565b5b60006107cc84828501610793565b91505092915050565b600081519050919050565b600082825260208201905092915050565b60005b8381101561080f5780820151818401526020810190506107f4565b60008484015250505050565b6000610826826107d5565b61083081856107e0565b93506108408185602086016107f1565b61084981610594565b840191505092915050565b60008115159050919050565b61086981610854565b82525050565b600060a0820190506108846000830188610752565b8181036020830152610896818761081b565b905081810360408301526108aa818661081b565b90506108b96060830185610860565b6108c66080830184610752565b9695505050505050565b7f4e487b7100000000000000000000000000000000000000000000000000000000600052602260045260246000fd5b6000600282049050600182168061091757607f821691505b60208210810361092a576109296108d0565b5b50919050565b60008190508160005260206000209050919050565b60006020601f8301049050919050565b600082821b905092915050565b6000600883026109927fffffffffffffffffffffffffffffffffffffffffffffffffffffffffffffffff82610955565b61099c8683610955565b95508019841693508086168417925050509392505050565b6000819050919050565b60006109d96109d46109cf84610748565b6109b4565b610748565b9050919050565b6000819050919050565b6109f3836109be565b610a076109ff826109e0565b848454610962565b825550505050565b600090565b610a1c610a0f565b610a278184846109ea565b505050565b5b81811015610a4b57610a40600082610a14565b600181019050610a2d565b5050565b601f821115610a9057610a6181610930565b610a6a84610945565b81016020851015610a79578190505b610a8d610a8585610945565b830182610a2c565b50505b505050565b600082821c905092915050565b6000610ab360001984600802610a95565b1980831691505092915050565b6000610acc8383610aa2565b9150826002028217905092915050565b610ae5826107d5565b67ffffffffffffffff811115610afe57610afd6105a5565b5b610b0882546108ff565b610b13828285610a4f565b600060209050601f831160018114610b465760008415610b34578287015190505b610b3e8582610ac0565b865550610ba6565b601f198416610b5486610930565b60005b82811015610b7c57848901518255600182019150602085019450602081019050610b57565b86831015610b995784890151610b95601f891682610aa2565b8355505b6001600288020188555050505b505050505050565b7f4e487b7100000000000000000000000000000000000000000000000000000000600052601160045260246000fd5b6000610be882610748565b91507fffffffffffffffffffffffffffffffffffffffffffffffffffffffffffffffff8203610c1a57610c19610bae565b5b600182019050919050565b6000604082019050610c3a6000830185610752565b610c476020830184610860565b939250505056fea26469706673582212204c8d1fabae5e4246fa8ffe80b3b65d6edb1df8f45dbba387bec8b31b6f44186b64736f6c63430008110033",
  "immutableReferences": {},
  "source": "// SPDX-License-Identifier: MIT\npragma solidity >=0.4.22 <0.9.0;\n\n//Contract that will handle the TODO list\n\ncontract TaskContract {\n\n  //Counter of task\n  uint public taskCounter = 0;\n\n  //Struct of the tasks\n  struct Task \n  {\n    uint256 id;\n    string  title;\n    string  description;\n    bool    done;\n    uint256 createAt; //Creation time of the task\n  }\n  \n  //Executed event when a task has been created\n  event TaskCreated(\n    uint256 id,\n    string title,\n    string description,\n    bool done,\n    uint256 createAt\n  );\n\n  // ToggleDone event\n  event TasktoggleDone(\n  uint id,\n  bool done\n  );\n\n\n  //Mapping id to Task\n  mapping (uint256 => Task) public tasks;\n\n  constructor ()\n  {\n    createTask(\"My first task\", \"Example of task\");\n  }\n\n  //Function to create a new task\n  function createTask (string memory _title, string memory _description) public\n  {\n    tasks[taskCounter] = Task(taskCounter, _title, _description, false, block.timestamp);\n    emit TaskCreated(taskCounter, _title, _description, false, block.timestamp);\n    taskCounter++;\n  }\n\n  //Function to update the state of a task\n  function toggleDone(uint _id) public\n  {\n    Task memory _task = tasks[_id]; //we create a variable of type task and we pass the id as parameter\n    _task.done        = !_task.done; // Change from false to true, or true to false\n    tasks[_id]        = _task; // Update the task with the new valor: done\n    emit TasktoggleDone(_id, _task.done); // Emit the event\n  }\n}\n",
  "sourcePath": "D:\\CURSOS\\DApps\\Truffle Projects\\Lista\\Backend\\contracts\\TaskContract.sol",
  "compiler": {
    "name": "solc",
    "version": "0.8.17+commit.8df45f5f.Emscripten.clang"
  },
  "schemaVersion": "3.4.10",
  "updatedAt": "2022-11-01T18:06:09.240Z",
  "networkType": "ethereum",
  "devdoc": {
    "kind": "dev",
    "methods": {},
    "version": 1
  },
  "userdoc": {
    "kind": "user",
    "methods": {},
    "version": 1
  }
}